:020000040800F2
:1000000000500020352A0008F1090008F309000813
:10001000F5090008F7090008F909000800000000C8
:10002000000000000000000000000000FB090008C4
:10003000FD09000800000000FF090008010A00088F
:100040007D2A00087D2A00087D2A00087D2A0008F4
:100050007D2A00087D2A00087D2A00087D2A0008E4
:100060007D2A00087D2A00087D2A0008090A000868
:100070007D2A00087D2A00087D2A00087D2A0008C4
:100080007D2A00087D2A00087D2A00087D2A0008B4
:10009000190A00087D2A00087D2A00087D2A000828
:1000A0007D2A00087D2A00087D2A00087D2A000894
:1000B0007D2A00087D2A0008290A00087D2A0008F8
:1000C0007D2A00087D2A00087D2A00087D2A000874
:1000D0007D2A00087D2A00087D2A00087D2A000864
:1000E0007D2A00087D2A00087D2A00080000000003
:1000F0000000000000000000000000000000000000
:0C01000000000000000000005FF808F1A3
:10010C00044B05481B1A062B02D9044B03B11847A4
:10011C00704700BF3F0400203C040020000000009A
:10012C0005490648091A891001EBD171491002D012
:10013C00034B03B1184770473C0400203C040020DB
:10014C000000000010B5064C237843B9FFF7D8FF28
:10015C00044B13B10448AFF300800123237010BD8E
:10016C003C04002000000000942A000808B5084B4D
:10017C001BB108490848AFF300800848036813B95D
:10018C00BDE80840CCE7064B002BF9D09847F7E7C1
:10019C000000000040040020942A00083C040020C9
:1001AC0000000000002301461A46184600F090B8E3
:1001BC0038B50A4C0A4D641BA4100AD004F18043D4
:1001CC00013B05EB8305013C55F804399847002C9D
:1001DC00F9D1BDE8384002F05DBC00BFE42A00084C
:1001EC00E02A000870B50F4E0F4D761BB61018BFE5
:1001FC00002405D0013455F8043B9847A642F9D1A8
:10020C000A4E0B4D02F040FC761BB61018BF0024B2
:10021C0006D0013455F8043B9847A642F9D170BD7D
:10022C0070BD00BFD82A0008D82A0008E02A0008B0
:10023C00D82A000870B4860746D0541E002A41D034
:10024C00CAB2034602E014F1FF343BD303F8012B8E
:10025C009D07F8D1032C2ED9CDB245EA05250F2CDC
:10026C0045EA054519D9264603F11002103E0F2E1A
:10027C0042F8105C42F80C5C42F8085C42F8045CF2
:10028C0002F11002F2D8A4F1100222F00F0204F0D5
:10029C000F041032032C13440DD91E462246043A87
:1002AC00032A46F8045BFAD8221F22F00302043218
:1002BC00134404F003042CB1C9B21C4403F8011B11
:1002CC009C42FBD170BC704714460346C2E700BF8A
:1002DC002DE9F047274C074626688846D6F8484152
:1002EC0092469946002C3CD065681F2D1ADC05F10E
:1002FC00010E7FB1012004EB8503C3F888A0D4F86C
:10030C00881100FA05F21143022FC4F88811C3F8C2
:10031C00089120D00235C4F804E0002044F8258070
:10032C00BDE8F087144B0BB34FF4C870AFF30080EB
:10033C000446D8B10020D6F848314FF0010E606069
:10034C0023600546C6F84841C4F88801C4F88C01FE
:10035C00002FDFD0CEE7D4F88C311A43C4F88C21AF
:10036C00D8E706F5A674C6F84841BDE74FF0FF3054
:10037C00BDE8F087C02A00080000000038B50A4B21
:10038C000A4A002101F048F950B9074D074C29469B
:10039C00204600F04BF82946204600F05DF838BDA9
:1003AC0000F0FAF8F1E700BF4005002060040020DF
:1003BC0010B51B4A00239360D360137519494B6128
:1003CC0001228A61CA6148F6947048604CF2F87058
:1003DC00086047F69474CC6088600B614B620A62CB
:1003EC00114801F06DF888B90F4801F0E7F880B9B1
:1003FC0002210D4801F0AAF970B900220321132043
:10040C0001F000FB132001F02FFB10BD00F0C4F82D
:10041C00EAE700F0C1F8EBE700F0BEF8EDE700BF4B
:10042C00B0040020D00400207C0400204268084B5B
:10043C009A4200D070470A78064B1A70CA785A70E4
:10044C000A79487902EB00225A808A791A71F1E70D
:10045C00F20FFF18A40400204268094B9A4200D006
:10046C0070470A78074B1A708A785A71CA780879DB
:10047C0002EB0022DA804A791A728A795A72EFE713
:10048C00F211FF18A40400202DE9F04188B00024DB
:10049C0004940594069407942E4B9A6942F010022A
:1004AC009A619A6902F010020092009A9A6942F0DD
:1004BC0020029A619A6902F020020192019A9A69CB
:1004CC0042F004029A619A6902F004020292029AC2
:1004DC009A6942F008029A619B6903F0080303933E
:1004EC00039BDFF87C8022464FF40051404601F01C
:1004FC00FFFC194E22464FF20741304601F0F8FC42
:10050C004FF4005304930125059506940227079791
:10051C0004A9404601F0F4FB4FF207430493059500
:10052C000697079704A9304601F0EAFB4FF41843ED
:10053C0004930594069504A9084801F0E1FBF823FF
:10054C0004930594069504A9304601F0D9FB08B034
:10055C00BDE8F08100100240000C01400008014091
:10056C000010014000B583B00A4B5A6942F00102F9
:10057C005A615B6903F001030193019B0022114650
:10058C000B2001F03FFA0B2001F06EFA03B05DF87E
:10059C0004FB00BF0010024072B6FEE700B585B048
:1005AC0000230193029303934148424A02604FF4A3
:1005BC00807282600122027303754FF46022C26163
:1005CC0043600823036100F04DFE00285DD1002339
:1005DC00019301220292039301A9354800F0A8FC73
:1005EC00002854D101230193022302930023039387
:1005FC0001A92F4800F09CFC00284AD1022301934A
:10060C00032302930023039301A9294800F090FCD3
:10061C00002840D103230193042302930023039366
:10062C0001A9234800F084FC002836D1042301934F
:10063C00052302930023039301A91D4800F078FCC5
:10064C0068BB05230193062302930023039301A99E
:10065C00174800F06DFC20BB06230193072302937F
:10066C000023039301A9124800F062FCD8B90723B8
:10067C000193082302930023039301A90C4800F073
:10068C0057FC90B905B05DF804FBFFF785FFFFF749
:10069C0083FFFFF781FFFFF77FFFFFF77DFFFFF77A
:1006AC007BFFFFF779FFFFF777FFFFF775FF00BFC1
:1006BC00B40500200024014008B50D480D4B036023
:1006CC000923436000238360C3604FF4403202610E
:1006DC004FF400124261037643768376C376037738
:1006EC00437700F047FE00B908BDFFF755FF00BF88
:1006FC007C0400200064004000B589B00023039303
:10070C000493059306930793019302931248134A9B
:10071C00026043608360C822C2600361836102F09F
:10072C00A3F898B9062303930023049303A90A485A
:10073C0002F015F960B900230193029301A9064850
:10074C0002F03AF930B909B05DF804FBFFF724FF69
:10075C00FFF722FFFFF720FF68050020000800408C
:10076C0000B595B0282200210DEB0200FFF762FDC9
:10077C00002305930693079308930993019302931F
:10078C000393049301220A924FF480330B930E923D
:10079C000222119212934FF4E01313930AA801F062
:1007AC00C3FBC8B90F2305930221069100230793BD
:1007BC004FF480620892099305A801F0F3FD68B923
:1007CC00022301934FF40043039301A801F09EFE12
:1007DC0030B915B05DF804FBFFF7DEFEFFF7DCFE69
:1007EC00FFF7DAFE08B500F041FBFFF7B9FFFFF7A2
:1007FC004BFEFFF7B7FEFFF7D1FEFFF75DFFFFF7EC
:10080C007BFFFFF7D5FD00F013F9082203490448DC
:10081C0000F06AFC00F0ECFAFCE700BF4805002091
:10082C00B405002082B00E4B9A6942F001029A6125
:10083C009A6902F001020092009ADA6942F0805241
:10084C00DA61DB6903F080530193019B054A53681D
:10085C0023F0E06343F00073536002B0704700BFB5
:10086C00001002400000014010B586B00023029336
:10087C0003930493059302681F4B9A4201D006B070
:10088C0010BD044603F56C439A6942F400729A61F8
:10089C009A6902F400720092009A9A6942F004027A
:1008AC009A619B6903F004030193019BFF2302935C
:1008BC000323039302A9114801F022FA1048114BAB
:1008CC0003600023436083608023C3604FF4007394
:1008DC0003614FF400634361202383614FF4805321
:1008EC00C36101F0FBF818B9054B23625C62C6E7E3
:1008FC00FFF752FEF8E700BF00240140000801405A
:10090C00E40500200800024030B587B000230293B4
:10091C0003930493059302681F4B9A4201D007B0CE
:10092C0030BD03F5D633DA6942F00072DA61DA6968
:10093C0002F000720092009A9A6942F008029A61E1
:10094C009B6903F008030193019B06AC4FF4807381
:10095C0044F8103D114D2146284601F0D1F94FF4D1
:10096C000073029302230393032305932146284625
:10097C0001F0C6F90A4A536823F4C04343F0E0631C
:10098C0043F48043536000221146142001F03AF8DE
:10099C00142001F069F8C2E700640040000C01402B
:1009AC000000014002680E4B9A4200D0704700B51F
:1009BC0083B003F50233DA6942F00402DA61DB69D1
:1009CC0003F004030193019B002211461E2001F049
:1009DC0019F81E2001F048F803B05DF804FB00BFC5
:1009EC0000080040FEE7FEE7FEE7FEE7FEE7704783
:1009FC007047704708B500F04BFA08BD08B50248BF
:100A0C0001F0DCF808BD00BFE405002008B5024881
:100A1C0000F0BAFE08BD00BF7C04002008B50248F7
:100A2C0001F028FE08BD00BF6805002070470000DB
:100A3C00002103291FD810B4164C8B000B4458000E
:100A4C002218002353702354938053801381D38036
:100A5C0001310329F0D9002304E000210E4A42F8A9
:100A6C0023100133072BF8D900230C4A13700C4ABE
:100A7C00137010BC7047002304E00021064A42F8B2
:100A8C0023100133072BF8D90023044A1370044AAE
:100A9C00137070472C06002048050020B00500207C
:100AAC0028060020254A1168254B99815168D98167
:100ABC0091681984D1685984116959805169998058
:100ACC009169D982D2691A83002307E003EB830270
:100ADC0051001B4A0A440021D1800133032B12D848
:100AEC0003EB83025100164A0A44518840F23562E6
:100AFC009142EBD9990019444800114A0244D1881B
:100B0C000131D180E9E7002306E003EB83014A00C1
:100B1C0000200B4988540133032B0DD803EB8302BF
:100B2C005100074A0A44D288052AEED8044A0A44DE
:100B3C001289052AEFD9E8E7704700BF4805002065
:100B4C002C06002010B50378032900F2BA80DFE8E8
:100B5C0001F0022C5C89012B0FD013B1022B18D0A1
:100B6C0010BD584C00220121204601F0C1F9002291
:100B7C000221204601F0BCF910BD524C002201218B
:100B8C00204601F0B5F901220221204601F0B0F90E
:100B9C0010BD4C4C01221146204601F0A9F900224F
:100BAC000221204601F0A4F910BD012B11D013B184
:100BBC00022B1CD010BD434C00224FF48051204618
:100BCC0001F096F900224FF48041204601F090F993
:100BDC0010BD3C4C00224FF48051204601F088F9A6
:100BEC0001224FF48041204601F082F910BD354CB2
:100BFC0001224FF48051204601F07AF900224FF483
:100C0C008041204601F074F910BD012B10D013B1B6
:100C1C00022B1AD010BD2B4C00220421204601F0CF
:100C2C0067F900224FF48061204601F061F910BD94
:100C3C00244C00220421204601F05AF901224FF4E1
:100C4C008061204601F054F910BD1E4C0122042194
:100C5C00204601F04DF900224FF48061204601F04E
:100C6C0047F910BD012B11D013B1022B1CD010BDB4
:100C7C00144C00224FF40051204601F039F90022A7
:100C8C004FF40041204601F033F910BD0D4C002209
:100C9C004FF40051204601F02BF901224FF4004192
:100CAC00204601F025F910BD064C01224FF40051ED
:100CBC00204601F01DF900224FF40041204601F0BE
:100CCC0017F910BD000C0140384B1B78092B05D0CF
:100CDC00364BB3F90230002B5ADB7047334B5B7940
:100CEC00012BF5D1314BDB88A3F50043013B072BDE
:100CFC00EED801A252F823F0250D0008810D000852
:100D0C00DD0C0008450D0008DD0C0008DD0C0008AA
:100D1C00DD0C0008650D0008244B1B79812B06D0D7
:100D2C00822BD5D1224B02221A701A75D0E7204B98
:100D3C0001221A701A75CBE71C4B1B79812B06D03C
:100D4C00822BC5D11A4B02229A729A77C0E7184BA4
:100D5C0001229A729A77BBE7144B1B79812B05D031
:100D6C00822BB5D10222124B1A70B1E70122104B23
:100D7C001A70ADE70D4B1B79812B05D0822BA7D1B7
:100D8C0002220B4B1A75A3E70122094B1A759FE738
:100D9C000023084A137006E003EB83014A0000208D
:100DAC00034988540133032BF6D996E7A404002099
:100DBC002C060020B00500200A4B1B78012B09D013
:100DCC00022B0ED10422084B1A70084B01229A7286
:100DDC009A7770470322044B1A70044B02221A7044
:100DEC001A757047B0050020280600202C0600203C
:100DFC0010B5FFF769FFFFF755FE002408E004EB80
:100E0C0084025300214605481844FFF79BFE013429
:100E1C00032CF4D9FFF7D0FF10BD00BF2C06002027
:100E2C0010B504460E4B18784FF47A73B3FBF0F3FD
:100E3C000C4A1068B0FBF3F000F024FE68B90F2CDC
:100E4C0001D9012010BD002221464FF0FF3000F0E7
:100E5C00D9FD054B1C60002010BD012010BD00BF4A
:100E6C0034040020300400203804002008B5074A60
:100E7C00136843F010031360032000F0B1FD002051
:100E8C00FFF7CEFFFFF7CEFC002008BD002002408C
:100E9C00034A1168034B1B780B441360704700BF67
:100EAC005406002034040020014B1868704700BF22
:100EBC0054060020704708B5436A9A6A12F0500F26
:100ECC001ED19A6A42F400729A621A68926802F40D
:100EDC006022B2F5602F03D01846FFF7EBFF08BD78
:100EEC001A7B002AF8D19A6A22F480729A629A6A62
:100EFC0012F4805FF0D19A6A42F001029A62EBE739
:100F0C001B6A1B6B984708BD704708B5406AFFF712
:100F1C00FBFF08BD704708B5406A836A43F0400385
:100F2C008362C36A43F00403C362FFF7F3FF08BD97
:100F3C0030B482B00023019390F82430012B00F0E0
:100F4C008B800246012380F824304B68062B29D86D
:100F5C000568686B03EB8303053B1F249C4020EA68
:100F6C0004000C6804FA03F303436B630B68092B4E
:100F7C0038D91568E86803EB43031E3B07249C40F3
:100F8C0020EA04008C6804FA03F30343EB600B685B
:100F9C00103B012B34D90020002382F8243002B0FE
:100FAC0030BC70470C2B0ED80568286B03EB830301
:100FBC00233B1F249C4020EA04000C6804FA03F332
:100FCC0003432B63D2E70568E86A03EB8303413BD9
:100FDC001F249C4020EA04000C6804FA03F303432A
:100FEC00EB62C3E71568286903EB430307249C40B5
:100FFC0020EA04008C6804FA03F303432B61C6E770
:10100C0013681648834205D0936A43F02003936219
:10101C000120C1E7986810F4000F1BD1986840F4C8
:10102C00000098600B68102B01D00020B4E70C4B2B
:10103C001B680C49A1FB03139B0C03EB83035900A6
:10104C00019102E0019B013B0193019B002BF9D123
:10105C000020A1E700209FE70220A0E70024014028
:10106C003004002083DE1B4330B583B00023019392
:10107C0003689A6812F0010F2ED19A6842F00102AF
:10108C009A60174B1B68174AA2FB03239B0C019316
:10109C0002E0019B013B0193019B002BF9D104461B
:1010AC00FFF702FF054623689B6813F0010F11D16F
:1010BC00FFF7FAFE401B0228F5D9A36A43F0100390
:1010CC00A362E36A43F00103E362002384F8243053
:1010DC00012002E0002000E0002003B030BD00BF82
:1010EC003004002083DE1B43F8B50468454DAC4248
:1010FC000AD005F58065AC4206D090F82440012C4E
:10110C0009D102252846F8BD3E4B5B6813F4702FBD
:10111C00F3D00125F6E717460E460446012380F866
:10112C002430FFF7A1FF0546002867D1A36A23F4FA
:10113C00706323F0010343F48073A3622268324B83
:10114C009A423DD0A36A23F48013A362536813F42C
:10115C00806F05D0A36A23F4405343F48053A362F9
:10116C00A36A13F4805F41D0E36A23F00603E362C1
:10117C00002384F82430236A244A9A62236A244A7E
:10118C00DA62236A234A1A6323686FF002021A6038
:10119C002268936843F48073936021683B4632461F
:1011AC004C31206A00F0D0FC2268936803F4602371
:1011BC00B3F5602F1DD0936843F480139360A1E7BF
:1011CC00A3F580635B6813F4702FBBD0A36A43F460
:1011DC008013A3620B4B5B6813F4806FC0D0A36ABF
:1011EC0023F4405343F48053A362B9E70023E36232
:1011FC00BEE7936843F4A003936083E7002384F86D
:10120C0024307FE70024014000280140C30E000871
:10121C00170F0008230F000838B503689A6812F0FE
:10122C00010F01D1002038BD04469A6822F001025A
:10123C009A60FFF739FE054623689B6813F0010F8F
:10124C000ED0FFF731FE401B0228F5D9A36A43F0FC
:10125C001003A362E36A43F00103E362012038BD8B
:10126C00002038BD00287FD038B50446836A002B97
:10127C004AD02046FFF7D0FFA36A13F010036DD1BC
:10128C0000286BD1A26A22F4885222F0020242F0AA
:10129C000202A2626268E1690A43257B42EA4502C6
:1012AC00A168B1F5807F38D0012933D0217D012987
:1012BC0036D02568696821F469410B436B6021685D
:1012CC008D682A4B2B4013438B60A368B3F5807F4A
:1012DC0037D0012B35D000232568E96A21F4700141
:1012EC000B43EB6223689968214B0B409A422CD03C
:1012FC00A36A23F0120343F01003A362E36A43F0E2
:10130C000103E362012038BDC36280F82430FFF78B
:10131C00ABFAAEE74FF48073C8E74FF48073C5E7C0
:10132C0035B9A169013943EA413343F40063C0E79D
:10133C00A16A41F02001A162E16A41F00101E16280
:10134C00B7E72369013B1B05C6E70023E362A36AE9
:10135C0023F0030343F00103A36238BDA36A43F0F7
:10136C001003A362012038BD01207047FDF7E1FF97
:10137C00FE0E1FFF002800F0A18038B5044690F83F
:10138C002030D3B12268136823F002031360FFF7F7
:10139C008BFD054623685A6812F0020F10D0FFF738
:1013AC0083FD401B0A28F5D9636A43F4003363625A
:1013BC00052384F82030012038BDFFF7A5FAE1E7BA
:1013CC001A6842F001021A60FFF76EFD05462368A9
:1013DC005A6812F0010F0DD1FFF766FD401B0A2869
:1013EC00F5D9636A43F400336362052384F8203033
:1013FC00012038BD227E012A3DD01A6822F08002DD
:10140C001A60637E012B3BD02268136823F04003E3
:10141C001360A37E012B39D02268136823F02003BC
:10142C001360E37E012B37D02268136843F010035E
:10143C001360237F012B35D02268136823F0080337
:10144C001360637F012B33D02268136823F00403ED
:10145C0013602168A368E26813432269134362692D
:10146C0013436268013A1343CB610020606201238D
:10147C0084F8203038BD1A6842F080021A60C0E748
:10148C002268136843F040031360C2E722681368B4
:10149C0043F020031360C4E72268136823F01003A1
:1014AC001360C6E72268136843F008031360C8E7AB
:1014BC002268136843F004031360CAE701207047E5
:1014CC00026890F82030013BDBB2012B05D9436A4E
:1014DC0043F4802343620120704770B4D2F8003289
:1014EC0043F00103C2F800324B6903F01F030120E3
:1014FC0000FA03F3D2F81C42D8430440C2F81C4251
:10150C00CC69ACB9D2F80C420440C2F80C424C691C
:10151C00CE688D8845EA0645483442F834504C690B
:10152C008E680D8845EA0645483402EBC4046560B4
:10153C00CC69012C19D08C6974BBD2F804420440DC
:10154C00C2F804420C696CBBD2F814422040C2F8B9
:10155C001402096A01292BD0D2F8003223F00103BE
:10156C00C2F80032002070BC7047D2F80C421C4309
:10157C00C2F80C424C690E688D8845EA0645483421
:10158C0042F834504C698E688D8945EA06454834DA
:10159C0002EBC4046560CEE7D2F804421C43C2F8E7
:1015AC000442CFE7D2F814021843C2F81402D0E771
:1015BC00D2F81C120B43C2F81C32CDE738B590F8A8
:1015CC002030DBB2012B05D0436A43F40023436285
:1015DC00012038BD0446022380F8203002681368CD
:1015EC0023F001031360FFF75FFC054623685B687B
:1015FC0013F0010F0DD0FFF757FC401B0A28F5D94B
:10160C00636A43F400336362052384F820300120BD
:10161C0038BD0020606238BD30B490F82040013CE9
:10162C00E4B2012C06D9436A43F4802343620120BF
:10163C0030BC704700296FD10468E46814F0030FC4
:10164C0064D0056801F11B0424012C5904F0040436
:10165C009460002C6BD1056801F11B0424012C59FA
:10166C00640D1460056801F11B0424012D5905F06B
:10167C000205D560056825446D6805F00F051561F8
:10168C00056825446D68C5F30725956105682C44EC
:10169C006468240C546104680A011444D4F8B841F9
:1016AC001C7004681444D4F8B841C4F307245C706B
:1016BC0004681444D4F8B841C4F307449C7004681B
:1016CC001444D4F8B841240EDC7004681444D4F8E3
:1016DC00BC411C7104681444D4F8BC41C4F3072405
:1016EC005C7104681444D4F8BC41C4F307449C7185
:1016FC0004682244D2F8BC21120EDA71F9B90268DE
:10170C00D36843F02003D360002091E7436A43F48D
:10171C000013436201208BE70468246914F0030F63
:10172C008FD1436A43F400134362012080E70568BC
:10173C0001F11B0424012C59E408546092E702685F
:10174C00136943F020031361002071E790F82030F7
:10175C00013BDBB2012B05D9436A43F4802343627E
:10176C00012070470268536919435161002070478A
:10177C0070477047704770477047704770477047A5
:10178C0070477047704770472DE9F84F054603685E
:10179C005C695F689E68D3F80C90D3F81080D3F81E
:1017AC0018A014F0010F5AD016F0010F17D0012217
:1017BC009A6016F0020F08D116F0040F30D116F013
:1017CC00080F07D04FF4805B0BE0FFF7D1FF4FF011
:1017DC00000B06E0FFF7CFFF4FF0000B01E04FF0DE
:1017EC00000B16F4807F0BD02B684FF480729A603C
:1017FC0016F4007F17D116F4806F18D04BF4005BF1
:10180C0016F4803F2DD02B684FF480329A6016F47A
:10181C00003F16D116F4802F17D04BF4004B20E06C
:10182C004FF4006BDDE72846FFF7A3FFE8E716F45B
:10183C00006F02D04BF4804BE2E72846FFF79CFF89
:10184C00DEE72846FFF796FF0BE016F4002F02D0D8
:10185C004BF4803B05E02846FFF78FFF01E04FF08B
:10186C00000B14F0080F07D019F0100F04D04BF434
:10187C00007B2B681022DA6014F0040F02D019F0F0
:10188C00080F60D114F0020F04D02B68DB6813F042
:10189C00030F5FD114F0400F07D018F0100F04D0D5
:1018AC004BF4806B2B6810221A6114F0200F02D0BD
:1018BC0018F0080F52D114F0100F04D02B681B69CC
:1018CC0013F0030F51D114F4003F02D017F0100F96
:1018DC004FD114F4803F02D017F0080F50D114F4FC
:1018EC00004F67D017F0040F61D014F4807F04D040
:1018FC001AF0010F01D04BF0010B14F4007F04D04F
:10190C001AF0020F01D04BF0020B14F4806F04D0CC
:10191C001AF0040F01D04BF0040B14F4006F46D0F6
:10192C001AF0700A43D0BAF1300F48D02FD9BAF15F
:10193C00500F47D0BAF1600F47D0BAF1400F31D1F8
:10194C004BF0400B2EE02B680822DA602846FFF79C
:10195C0015FF97E72846FEF711FD9BE72B68082239
:10196C001A612846FFF70CFFA5E72846FFF707FF8B
:10197C00A9E72B6810225A602846FFF702FFA8E758
:10198C002B6808225A602846FFF7FCFEA7E7BAF13D
:10199C00100F05D0BAF1200F04D14BF0100B01E061
:1019AC004BF0080B2A68936923F0700393612B6842
:1019BC0004225A60BBF1000F0AD1BDE8F88F4BF03E
:1019CC00200BEFE74BF0800BECE74BF4807BE9E767
:1019DC006B6A4BEA03036B622846FFF7D4FEECE715
:1019EC00074AD36823F4E0631B041B0C000200F4C9
:1019FC00E060184340F0BF6040F40030D0607047A6
:101A0C0000ED00E030B4164BDB68C3F30223C3F1E6
:101A1C000704042C28BF04241D1D062D17D9033BD5
:101A2C00012505FA04F4013C2140994005FA03F321
:101A3C00013B1340194300280BDB0901C9B200F12B
:101A4C00604000F5614080F8001330BC7047002303
:101A5C00E6E700F00F000901C9B2024B1954F4E794
:101A6C0000ED00E014ED00E0002808DB420900F076
:101A7C001F00012303FA00F0014B43F822007047CA
:101A8C0000E100E00138B0F1807F0AD2064B5860CB
:101A9C00F021064A82F823100020986007221A6071
:101AAC0070470120704700BF10E000E000ED00E03F
:101ABC0070B4C56B066C0124B4406C600468636040
:101ACC004368102B05D0036899600368DA6070BC1A
:101ADC00704703689A600368D960F8E760B310B484
:101AEC0003460068154A02441549A1FB021212096B
:101AFC0092001A64134ADA63022283F821200168E7
:101B0C0021F47F5121F030015A689C682243DC6833
:101B1C0022431C6922435C6922439C692243DC6991
:101B2C0022430A43026000209863012283F821209B
:101B3C0083F8200010BC704701207047F8FFFDBFF0
:101B4C00CDCCCCCC0000024038B590F82040012C14
:101B5C0032D0012480F8204090F82140012C04D090
:101B6C00002380F82030022038BD0446022084F87F
:101B7C0021000020A0632568286820F0010028605F
:101B8C002046FFF795FFE36A5BB12268136843F0C8
:101B9C000E0313602268136843F0010313600020E6
:101BAC0038BD2268136823F004031360226813689D
:101BBC0043F00A031360EDE7022038BD38B5C36B60
:101BCC001A6804682568016C04238B401A4236D0CD
:101BDC0015F0040F33D0236813F0200F03D12368C2
:101BEC0023F0040323600368434A934214D0143255
:101BFC00934219D01432934218D01432934218D015
:101C0C001432934218D01432934202D04FF08062B7
:101C1C0003E04FF4800200E00422384B5A60C36AA0
:101C2C00002B67D0984738BD4022F6E74FF480620E
:101C3C00F3E74FF48042F0E74FF48022EDE7022304
:101C4C008B401A423BD015F0020F38D0236813F0AA
:101C5C00200F06D1236823F00A032360012380F8A8
:101C6C0021300368244A934214D0143293421BD07F
:101C7C00143293421AD0143293421AD01432934233
:101C8C001AD01432934202D04FF0007203E04FF49A
:101C9C00001200E00222194B5A60002380F8203019
:101CAC00836A3BB3984738BD2022F4E74FF40072A7
:101CBC00F1E74FF40052EEE74FF40032EBE7082364
:101CCC0003FA01F10A4215D015F0080F12D023685F
:101CDC0023F00E032360C16B026C012303FA02F2A2
:101CEC004A60836380F82130002380F82030036B36
:101CFC0003B1984738BD00BF080002400000024005
:101D0C00F0B583B00026344671E0002D00F0A280BF
:101D1C00012D00D1CE68FF2B00F2B0808646FF2B40
:101D2C0000F2AF80A500DEF800200F27AF4022EABA
:101D3C00070206FA05F52A43CEF800204A6812F08D
:101D4C00805F53D0644A956945F0010595619269AD
:101D5C0002F001020192019AA508AF1C5F4A52F8E9
:101D6C00272004F00307BF004FF00F0E0EFA07FEFA
:101D7C0022EA0E02DFF874E1704500F089800EF55E
:101D8C00806E704500F087800EF5806E704500F017
:101D9C0085800EF5806E704577D04FF0040E0EFAEC
:101DAC0007F73A4302354D4F47F825204A6812F49D
:101DBC00803F76D04A4D2A681A432A604A6812F44A
:101DCC00003F74D0464D6A681A436A604A6812F440
:101DDC00801F72D0424DAA681A43AA604A6812F456
:101DEC00001F70D03E4DEA681343EB6001340B6862
:101DFC0033FA04F26DD00122A24013409A42F5D17D
:101E0C004D68122D30D00BD8022D2AD07FF67DAF25
:101E1C00032D2FD0112D7FF47EAFCE6804367AE7D8
:101E2C00304FBD4216D00CD92F4FBD4212D007F502
:101E3C008037BD420ED0A7F58017BD427FF46BAF43
:101E4C0008E0A7F58017BD4204D007F58037BD42E6
:101E5C007FF461AF8D687DB1012D08D042610826F9
:101E6C0059E7CE68083656E7CE680C3653E7026160
:101E7C00082650E700264EE704264CE700F1040E36
:101E8C004DE7A4F10805AD004DE74FF0030E86E7D2
:101E9C004FF0000E83E74FF0010E80E74FF0020E7B
:101EAC007DE70F4D2A6822EA03022A6086E70C4D73
:101EBC006A6822EA03026A6088E7094DAA6822EA86
:101ECC000302AA608AE7064DEA6822EA0303EB6084
:101EDC008CE703B0F0BD00BF0010024000000140D1
:101EEC0000040140000021100000311000080140E6
:101EFC0012B90904016170470161704782B0084B47
:101F0C001B68084AA2FB03235B0A00FB03F0019049
:101F1C0000BF019B5A1E0192002BF9D102B07047F1
:101F2C0030040020D34D6210002800F0F58170B50C
:101F3C0082B00446036813F0010F3DD0AB4B5B68D5
:101F4C0003F00C03042B2ED0A84B5B6803F00C039E
:101F5C00082B23D06368B3F5803F51D0002B55D1AB
:101F6C0003F1804303F504331A6822F480321A60BB
:101F7C001A6822F480221A606368002B60D0FEF786
:101F8C0093FF0546994B1B6813F4003F14D1FEF7E1
:101F9C008BFF401B6428F5D90320C2E1934B5B688F
:101FAC0013F4803FD6D0914B1B6813F4003F03D041
:101FBC006368002B00F0B281236813F0020F65D028
:101FCC008A4B5B6813F00C0F4ED0884B5B6803F0A8
:101FDC000C03082B43D02369002B79D00122844BAE
:101FEC001A60FEF761FF0546804B1B6813F0020F69
:101FFC0065D1FEF759FF401B0228F5D9032090E16B
:10200C007A4A136843F480331360B5E7B3F5A02F15
:10201C0009D0764B1A6822F480321A601A6822F4BE
:10202C0080221A60A8E703F18043A3F53C331A68B9
:10203C0042F480221A601A6842F480321A609BE7DC
:10204C00FEF732FF0546694B1B6813F4003FB3D013
:10205C00FEF72AFF401B6428F5D9032061E1634B8E
:10206C005B6813F4803FB6D1604B1B6813F0020F12
:10207C0004D02369012B01D0012052E15B4A136883
:10208C0023F0F803616943EAC1031360236813F07A
:10209C00080F32D0A369002B6ED00122554B1A6069
:1020AC00FEF702FF0546514B5B6A13F0020F21D17C
:1020BC00FEF7FAFE401B0228F5D9032031E14B4A0A
:1020CC00136823F0F803616943EAC1031360DDE789
:1020DC000022474B1A60FEF7E7FE0546434B1B6890
:1020EC0013F0020FD2D0FEF7DFFE401B0228F5D909
:1020FC00032016E10120FFF701FF236813F0040F02
:10210C0000F09880394BDB6913F0805F46D1374B78
:10211C00DA6942F08052DA61DB6903F08053019393
:10212C00019B0125344B1B6813F4807F38D0E36886
:10213C00012B49D0002B4DD103F1804303F504331F
:10214C001A6A22F001021A621A6A22F004021A6256
:10215C00E368002B5CD0FEF7A7FE0646234B1B6AF8
:10216C0013F0020F65D1FEF79FFE801B41F28833FE
:10217C009842F3D90320D4E000221E4B1A60FEF7DC
:10218C0093FE0546194B5B6A13F0020FB5D0FEF7B0
:10219C008BFE401B0228F5D90320C2E00025C1E7C5
:1021AC00154A136843F480731360FEF77DFE0646F0
:1021BC00114B1B6813F4807FB9D1FEF775FE801BA1
:1021CC006428F5D90320ACE0084A136A43F00103F4
:1021DC001362BDE7052B11D0044B1A6A22F00102E1
:1021EC001A621A6A22F004021A62B1E70010024065
:1021FC000000424280044242007000404C4B1A6A7C
:10220C0042F004021A621A6A42F001021A629FE753
:10221C00FEF74AFE0646464B1B6A13F0020F08D027
:10222C00FEF742FE801B41F288339842F3D903201B
:10223C0077E0E5B9E369002B72D03D4A526802F0B1
:10224C000C02082A56D0022B17D00022394B1A60E8
:10225C00FEF72AFE0446364B1B6813F0007F47D06E
:10226C00FEF722FE001B0228F5D9032059E0304A64
:10227C00D36923F08053D361DCE700222D4B1A6025
:10228C00FEF712FE05462A4B1B6813F0007F06D0A2
:10229C00FEF70AFE401B0228F5D9032041E0236A11
:1022AC00B3F5803F1AD022494B6823F47413226A89
:1022BC00606A024313434B6001221E4B1A60FEF707
:1022CC00F3FD04461A4B1B6813F0007F0ED1FEF78A
:1022DC00EBFD001B0228F5D9032022E0144A5368B9
:1022EC0023F40033A1680B435360DCE7002018E0B3
:1022FC00002016E0012B16D00D4B5B6803F48031E7
:10230C00226A914201D001200BE003F47013626A3F
:10231C0093420AD0012004E001207047012000E024
:10232C00002002B070BD0120FBE70020F9E700BFE0
:10233C00001002406000424210B586B0154C94E883
:10234C000F000DF1180E0EE90F00238AADF80430C2
:10235C00114B5B6803F00C02082A18D1C3F38342BB
:10236C00724412F8102C13F4803F03D10B4800FB7D
:10237C0002F00DE0084B5B68C3F34043734413F861
:10238C00143C074800FB02F0B0FBF3F000E00448FB
:10239C0006B010BDAC2A00080010024000093D0038
:1023AC0000127A00002800F0A38070B50446524B4E
:1023BC001B6803F007038B420CD24F4A136823F0BF
:1023CC0007030B431360136803F00703994201D012
:1023DC00012070BD236813F0020F17D013F0040F07
:1023EC0004D0464A536843F4E0635360236813F007
:1023FC00080F04D0414A536843F4605353603F4A7A
:10240C00536823F0F003A068034353600D46236820
:10241C0013F0010F31D06368012B20D0022B25D093
:10242C00364A126812F0020F64D034494A6822F01E
:10243C00030213434B60FEF737FD06462F4B5B68D8
:10244C0003F00C036268B3EB820F16D0FEF72CFD81
:10245C00801B41F288339842F0D9032070BD274A83
:10246C00126812F4003FE0D1012070BD234A1268BB
:10247C0012F0007FD9D1012070BD1F4B1B6803F0F7
:10248C0007039D420CD21C4A136823F007032B430D
:10249C001360136803F007039D4201D0012070BD47
:1024AC00236813F0040F06D0144A536823F4E06336
:1024BC00E1680B435360236813F0080F07D00F4AF1
:1024CC00536823F46053216943EAC1035360FFF757
:1024DC0033FF0A4B5B68C3F30313094AD35CD84040
:1024EC00084B1860084B1868FEF79AFC002070BD6A
:1024FC0001207047012070BD0020024000100240F6
:10250C00C42A0008300400203804002070B582B0C2
:10251C000446036813F0010F34D03E4BDB6913F013
:10252C00805F48D13B4BDA6942F08052DA61DB695B
:10253C0003F080530193019B0125374B1B6813F467
:10254C00807F3AD0334B1B6A13F4407311D062680E
:10255C0002F4407293420CD02E4A136A23F440705A
:10256C002E4901260E6000260E60106213F0010F3A
:10257C0037D1284A136A23F4407361680B43136202
:10258C00002D3FD1236813F0020F06D0214A536867
:10259C0023F44043A1680B435360236813F0100FDE
:1025AC0035D01C4A536823F48003E1680B43536015
:1025BC00002002B070BD0025BFE7174A136843F432
:1025CC0080731360FEF770FC0646134B1B6813F404
:1025DC00807FB7D1FEF768FC801B6428F5D90320F7
:1025EC00E7E7FEF761FC06460A4B1B6A13F0020F85
:1025FC00BFD1FEF759FC801B41F288339842F3D9C6
:10260C000320D6E7D36923F08053D361BAE70020C7
:10261C00CFE700BF0010024000700040400442426F
:10262C0010B4036A046A24F001040462846924F07F
:10263C00F00444EA021223F00A030B4382610362A2
:10264C0010BC704710B4036A23F010030362846952
:10265C00036A24F4704444EA023223F0A00343EAF0
:10266C0001138261036210BC70477047704770475A
:10267C007047704710B5044603681A6912F0020FD0
:10268C0011D0DA6812F0020F0DD06FF002021A614D
:10269C000123037703689B6913F0030F70D0FFF7D6
:1026AC00E6FF0023237723681A6912F0040F12D077
:1026BC00DA6812F0040F0ED06FF004021A610223D4
:1026CC00237723689B6913F4407F5FD02046FFF784
:1026DC00CEFF0023237723681A6912F0080F12D05B
:1026EC00DA6812F0080F0ED06FF008021A6104239A
:1026FC0023772368DB6913F0030F4ED02046FFF7D6
:10270C00B6FF0023237723681A6912F0100F12D03A
:10271C00DA6812F0100F0ED06FF010021A61082355
:10272C0023772368DB6913F4407F3DD02046FFF705
:10273C009EFF0023237723681A6912F0010F03D040
:10274C00DA6812F0010F36D123681A6912F0800F83
:10275C0003D0DA6812F0800F34D123681A6912F0B2
:10276C00400F03D0DA6812F0400F32D123681A6997
:10277C0012F0200F03D0DA6812F0200F30D110BD08
:10278C00FFF774FF2046FFF773FF8AE72046FFF739
:10279C006DFF2046FFF76CFF9BE72046FFF766FFB7
:1027AC002046FFF765FFACE72046FFF75FFF2046AA
:1027BC00FFF75EFFBDE76FF001021A612046FFF7DD
:1027CC0054FFC1E76FF080021A61204600F02BF92C
:1027DC00C3E76FF040021A612046FFF74AFFC5E7D6
:1027EC006FF020021A61204600F01CF9C7E70000C8
:1027FC0003681C4A904227D0B0F1804F24D0A2F538
:10280C009432904220D002F5806290421CD0154A3E
:10281C0090421ED0B0F1804F1BD0A2F59432904262
:10282C0017D002F58062904213D023F080034A69DE
:10283C00134303608B68C3620B688362094B984235
:10284C000CD001234361704723F070034A68134393
:10285C00DDE723F44073CA681343E6E70B690363AF
:10286C00EFE700BF002C014038B310B5044690F8D8
:10287C003D30EBB1022384F83D30211D2068FFF779
:10288C00B7FF012384F8463084F83E3084F83F309B
:10289C0084F8403084F8413084F8423084F8433076
:1028AC0084F8443084F8453084F83D30002010BD65
:1028BC0080F83C30FEF776F8DCE70120704710B466
:1028CC00846824F47F4442EA032319430C43846054
:1028DC0010BC704710B50268936823F070034C6805
:1028EC00234323F007030C68234393604B68502B5E
:1028FC0023D00BD9602B27D0702B2CD10B698A6875
:10290C00C9680068FFF7DBFF002010BD402B22D107
:10291C000B68052B21D003681C6A1A6A22F001028D
:10292C001A620268936923F0F003096943EA011300
:10293C00936103681C62002010BD0A6989680068F5
:10294C00FFF76EFE002010BD0A6989680068FFF76A
:10295C0079FE002010BD002010BD012010BD90F8A4
:10296C003C30012B02D102231846704710B50446A7
:10297C00012380F83C30022380F83D30FFF7AAFF9A
:10298C00034688B92168CA6822F04002CA602168EF
:10299C00CA6822F48042CA60012284F83D200022D9
:1029AC0084F83C20184610BD012384F83D300022E9
:1029BC0084F83C20F6E7000090F83C30012B2CD03A
:1029CC0030B4012380F83C30022380F83D3002689B
:1029DC005368946823F070030D682B4353600368AD
:1029EC000F4A934213D0B3F1804F10D0A2F594321A
:1029FC0093420CD002F58062934208D0012380F8F8
:102A0C003D30002380F83C30184630BC704724F031
:102A1C0080044A6814439C60F0E70220704700BFB2
:102A2C00002C014070477047002103E00B4B5B58B2
:102A3C00435004310A480B4B42189A42F6D30A4AC7
:102A4C0002E0002342F8043B084B9A42F9D3FDF70D
:102A5C00EDFFFDF7C7FBFDF7C5FE7047E42A000844
:102A6C00000000203C0400203C04002058060020FC
:102A7C00FEE70000024B13B10248FDF793BB704711
:102A8C0000000000BD010008F8B500BFF8BC08BC90
:102A9C009E467047F8B500BFF8BC08BC9E46704710
:102AAC0002030405060708090A0B0C0D0E0F101083
:102ABC0001020000080000200000000000000000DF
:0C2ACC0001020304060708094300000093
:082AD800812A000879010008C1
:042AE0005101000898
:102AE400080000200000000000000000F4020020A4
:102AF4005C030020C403002000000000000000006C
:102B040000000000000000000000000000000000C1
:102B1400000000000000000000000000D42A0008AB
:102B240000000000000000000000000000000000A1
:102B34000000000000000000000000000000000091
:102B44000000000000000000000000000000000081
:102B54000000000000000000000000000000000071
:102B64000000000000000000000000000000000061
:102B74000000000000000000000000000000000051
:102B84000000000000000000000000000000000041
:102B940001000000000000000E33CDAB34126DE6DE
:102BA400ECDE05000B000000000000000000000047
:102BB4000000000000000000000000000000000011
:102BC4000000000000000000000000000000000001
:102BD40000000000000000000000000000000000F1
:102BE40000000000000000000000000000000000E1
:0C2F14000024F400010000001000000088
:0400000508002A3590
:00000001FF
